:020000040000FA
:020000001628C0
:040002000034003492
:08000800A6000308A7000B1D70
:1000100012280B11833081072014A80B122864309A
:10002000A800A01427088300260809008316880169
:100030000612861206138613D130810083128801BE
:10004000A101A201A301A4012010A0102011A5016B
:1000500006168612061386136430A80083308100CA
:100060008B168B1720188D2020194128061C8228FA
:10007000861C842886193228A101A201A301A401AB
:100080003228061946282011A0113228A01C322837
:10009000A010A01D67280130A102031C502832289F
:1000A0000930A1000130A202031C57283228093070
:1000B000A2000130A302031C5E2832280930A300ED
:1000C0000130A402031832280930A4003228A10A02
:1000D0000A30210203186D283228A101A20A0A3031
:1000E0002202031874283228A201A30A0A3023022C
:1000F00003187B283228A301A40A0A30240203181B
:10010000A4013228A0118628A0158628A0106430EA
:10011000A80020158330810032282010061E972861
:1001200006122208AD208038880086160800861E38
:100130009F2886122308AD20880006170800061F96
:10014000A72806132408AD20880086170800861308
:100150002108AD2088000616080082073F340634C7
:100160005B344F3466346D347D3407347F346F3400
:02400E00313F40
:00000001FF
