:1000000008308A00E8280000FF00030E8301A100E9
:100010000A08A0008A010408A2007708A300780853
:10002000A4007908A5007A08A60003170D08031399
:10003000A70003170F080313A80003170C080313E6
:10004000A90003170E080313AA00831383128B1E43
:100050002B280B194C28220884002308F7002408B9
:10006000F8002508F9002608FA00270803178D0074
:100070000313280803178F000313290803178C00A4
:1000800003132A0803178E00031320088A00210E89
:100090008300FF0E7F0E09008A110A124F28010803
:1000A000063EDD005D088100AC0B59282B14FA30A8
:1000B000AC000B118A110A122B28561D4F23000089
:1000C000521D4F270001521D4F230001561D4F277F
:1000D0000001561D4F230001521D4F230001561DE4
:1000E0004F270001561D4F230001521D4F230000D2
:1000F0005108003A03198928013A03199028033A54
:1001000003199628013A03199D28073A0319A328D1
:10011000AB28DF3083168500831252088500AB2898
:1001200083168601831252088600AB28F9308316A5
:100130008700831252088700AB2883168801831238
:1001400052088800AB288316091089100911831200
:1001500052088900AB2808001A30F700F70BAE28C8
:1001600000008316091083120910831609118312E7
:1001700009110330D1004708D20078208316891076
:10018000831289141A30F700F70BC4280000831675
:1001900089108312891008004330840083130008FB
:1001A0000319DF280230F800F701F70BD528F80B08
:1001B000D4289730F700F70BDB28800BD2280800F3
:1001C00083168910831289103830C700AC200F3095
:1001D000C300CC200130C700AC200A30C300CC20C3
:1001E0000C30C700AC200A30C300CC200630C7005A
:1001F000AC200A30C300CC208A150A122029440BF7
:10020000022905294030C5000629C50101304302F5
:10021000C50745088038C600C700AC2008001A3062
:10022000F700F70B11290000831609108312091437
:1002300083160911831209110330D1005008D2002E
:10024000782083168910831289141A30F700F70B6F
:10025000272900008316891083128910080050088E
:1002600003199F29D800540803199F29D807031898
:1002700040297F30D802031C9F2903199F29442954
:100280008130D80703189F295808F700F801F901B1
:10029000FA015108DC00DC175208DB005308DA00D1
:1002A0001830D800D9015A1C6D295708FA07031CC9
:1002B0005F29F90A031D5F29F80A0319D91756089F
:1002C000F907031C6629F80A0319D9175508D20043
:1002D000D2175208F8070318D917D90DF80CF90CE2
:1002E000FA0CDC0CDB0CDA0C0310D80B52290130B1
:1002F000F70703189F29F81B8429DC0DFA0DF90D67
:10030000F80DF70303199F29DC1F9529FA0A031D2D
:100310009529F90A031D9529F80A031D9529F80C5A
:10032000F90CFA0CF70A03199F295108D90055084E
:10033000D906D91F9D29F817A329F813A329F70176
:10034000F801F901FA0108008318A929583084003E
:100350008313F701F801F901FA01D801D901DA0193
:10036000DB0157085604550454040319E7292030CB
:10037000DC000310D00DD10DD20DD30DD80DD90D49
:10038000DA0DDB0D57085B02031DD02956085A020F
:10039000031DD02955085902031DD02954085802BD
:1003A000031CE1295408D8025508031C550FD90233
:1003B0005608031C560FDA025708031C570FDB02BE
:1003C0000314F70DF80DF90DFA0DDC0BB9295808D7
:1003D0008000840A59088000840A5A088000840A30
:1003E0005B08800008000408C8004708CA00031919
:1003F000122A4608D3004508D2004408D100430819
:10040000D000D701D6012030D5008230D4002F2172
:100410007A08C6007908C5007808C4007708C300C8
:10042000CA0BF9294608D3004508D2004408D10078
:100430004308D0005008B63CD000FA015108D4005F
:10044000D1170310D10CD20CD30CFA0CF90CF80C08
:10045000F70CD00B212AD41F382AF709F809F9091B
:10046000FA09F70A0319F80A0319F90A0319FA0A2B
:100470007A08C6007908C5007808C4007708C30068
:10048000C61F4F2AC803C816C309C409C509C6092F
:10049000C30A0319C40A0319C50A0319C60A3B3063
:1004A000CF009A30CE00CA30CD00CC010A30CA004D
:1004B00047080319C80A831443308400831346088D
:1004C000D3004508D2004408D1004308D0004F08AB
:1004D000D7004E08D6004D08D5004C08D400A42102
:1004E0007808F708031D872A470A4A020319872A52
:1004F00048080319892A0F394A020319812A031867
:10050000B92AC81BB92A481B892A2030B52A2030AD
:10051000C805C81E972AC8124708031DC8037708D4
:10052000C8002D30D0000F214808F700C801470847
:100530004A02031DA52A7708C8002E30D0000F21DB
:100540004808F7002030C80500303030C81EB52AF2
:10055000C8124708031DC8037708C8002D30D00013
:100560000F214808F700C8013030F7077708D0009E
:100570000F2183104F08D3004E08D2004D08D10040
:100580004C08D000D701D601D5010A30D400A421EF
:100590007A08CF007908CE007808CD007708CC0023
:1005A000CA0B5B2A080080308318CC06D101D20127
:1005B0004808D0004C08D00647080319C32BCF00C9
:1005C000F7004B080319CC2BCF020319682B031C2F
:1005D000262B4C08D500D5174D08D4004E08D30063
:1005E000D2010310D50CD40CD30CD20CCF0BF02AB3
:1005F000D01FFD2A5114E02B51104F1051164A30D4
:1006000084008313F52B5112D01B102B4F1C1B2B76
:10061000D50CD40CD30CD20CF70A0319DB2B1B2BF3
:10062000D51B1E2B0310D20DD30DD40DD50DF70302
:100630000319DB2B102B5117882B51134808D000BE
:10064000D01F242BD517D42BD513D42B4B08CF0078
:10065000F7004708CF024808D500D5174908D4004D
:100660004A08D300D2010310D50CD40CD30CD20C01
:10067000CF0B322BD01F3F2BD114E02BD1104F10BA
:10068000D1164E3084008313F52BD112D01B522B80
:100690004F1C5D2BD50CD40CD30CD20CF70A0319CC
:1006A000DB2B5D2BD51B602B0310D20DD30DD40D8E
:1006B000D50DF7030319DB2B522BD117882BD11340
:1006C0004C08D000D01F662BD517D42BD513D42BB4
:1006D0004C08D500D5174D08D4004E08D300D01FC4
:1006E000752BD5135115E02B5111D2014F104A3003
:1006F00084008313F52BD01B9E2B4808D0004F1C81
:10070000882BD50CD40CD30CD20CF70A0319DB2B95
:10071000D21F992BD30A031D992BD40A031D992BA1
:10072000D50A031D992BD50CD40CD30CF70A031949
:10073000DB2B511B1D2BD11B5F2BBD2B8030D50616
:10074000D51FA62BE02B4C08D000B32B4808D000B7
:10075000D508031DB32BD408031DB32BD308031DE9
:10076000B32BF701D42BD51BBD2B0310D20DD30D0A
:10077000D40DD50DF70BB32BDB2BD01FC12BD51709
:10078000D42BD513D42B4B08F7004C08D5004D08BB
:10079000D4004E08D300D42B4708F7004808D500F2
:1007A0004908D4004A08D3005508F8005408F90055
:1007B0005308FA00132CF701F801F901FA01132C80
:1007C000D201D309D409D509D209D20A031DEE2BCF
:1007D000D30A031DEE2BD40A0319D50A5118FC2A9B
:1007E000D1183E2B5119742BA32B0008D307031CDF
:1007F000FF2BD40A031DFF2BD50A03194F148403C2
:100800000008D407031C072CD50A03194F148403CE
:100810000008801F803AD50703184F14511A032B84
:10082000D11A452B7B2B08004408CB004808CB0687
:10083000CB1F1F2C03110310C41B0314522C44089C
:10084000CB004708CC004308CC0203192D2CCB1F4A
:10085000522C0308013A8300522C4808CC0044086B
:10086000CC020319392CCB1F522C0308013A830008
:10087000522C4908CC004508CC020319452CCB1F4B
:10088000522C0308013A8300522C4A08CC00460837
:10089000CC020319512CCB1F522C0308013A8300C0
:1008A000522C031008000B08C3008B138316031788
:1008B0008C170C140000000083120313C31B8B174A
:1008C00003170C087F390319A72C0313C300031760
:1008D0000D080313C40003170F080313C5004308D2
:1008E000D0000F21440803178D0003134508031798
:1008F0008F0003130B08C6008B13831603178C1786
:100900000C140000000083120313C61B8B1703177F
:100910000C0D0E0D7F390319A72C0313C300031709
:100920000D080313C40003170F080313C500430881
:10093000D0000F21440803178D0003134508031747
:100940008F008D0A03198F0A0313532C0317031307
:100950000800AB1CA22D0330C3000230C400FF20EE
:100960004F30D0000F214E30D0000F2183143C08AF
:10097000CA003B08C9003A08C8003908C70038084F
:10098000CE003708CD003608CC003508CB00D32286
:100990004008C6003F08C5003E08C4003D08C3002B
:1009A0007A08CA007908C9007808C8007708C70023
:1009B0001424031C002DF93083168700831287103E
:1009C00083168700831207152B1DF32C0630C300F6
:1009D0000230C400FF205D3003178D0000308F000F
:1009E00003135324FF2C0630C3000230C400FF2041
:1009F000603003178D0000308F0003135324382D0F
:100A000083103C08CA003B08C9003A08C8003908EE
:100A1000C7003808CE003708CD003608CC003508AE
:100A2000CB00D3227A08C6007908C5007808C40034
:100A30007708C3004008CA003F08C9003E08C80044
:100A40003D08C7001424031C382DF9308316870095
:100A5000831207112B19382D0630C3000230C40051
:100A6000FF20633003178D0000308F0003135324E1
:100A70009A30D3009930D2001930D1007F30D000A5
:100A80003C08D7003B08D6003A08D5003908D40006
:100A90002F217A08C6007908C5007808C4007708B5
:100AA000C3004008CA003F08C9003E08C8003D080E
:100AB000C7001424031C742DF93083168700831299
:100AC0008714DF3083168500831285162B1D742D45
:100AD0000630C3000230C400FF20663003178D00CB
:100AE00000308F00031353244008C6003F08C500A0
:100AF0003E08C4003D08C3003C08CA003B08C900CA
:100B00003A08C8003908C70014240318892D031DAA
:100B1000A12DF9308316870083128710DF308316EA
:100B20008500831285122B1DA12D0630C3000230D3
:100B3000C400FF20693003178D0000308F000313BD
:100B400053240A2EF9308316870083120711DF30F1
:100B500083168500831285120330C3000230C4005F
:100B6000FF204F30D0000F214630D0000F212B192D
:100B7000C52D0630C3000230C400FF206C300317BF
:100B80008D0000308F0003135324C601C50170305F
:100B9000C4008330C3004008CA003F08C9003E08B3
:100BA000C8003D08C7001424031CEA2DF930831641
:100BB0008700831287142B1DE92D0630C3000230F5
:100BC000C400FF206F3003178D0000308F00031327
:100BD00053240A2EF93083168700831287102B1DA9
:100BE000FE2D0630C3000230C400FF207230031710
:100BF0008D0000308F00031353240A2E0630C300EB
:100C00000230C400FF20753003178D0000308F00C4
:100C1000031353248A150A1297298E30F7004608C9
:100C2000F8004508F900FA01F808031D212E79089B
:100C3000F800F9010830F702F808031D212EF7012A
:100C4000292E0310F81B282EF90DF80DF703212E7D
:100C5000F813080047080319EF2ED3004B080319B7
:100C6000EF2ED302031C392E7F30D3070318EF2E4B
:100C70003F2E8130D302031CEF2E0319EF2E5308B1
:100C8000F700F801F901FA01D2014808D100D117A3
:100C90004908D0004A08CF001930D3004E08CF02CF
:100CA0000318622E0130D0020318622ED1020318FD
:100CB000622ED2020318622ED20AD10AD00A4E083E
:100CC000CF07942E4D08D00203187D2E0130D1029B
:100CD00003187D2ED20203187D2ED20AD10A4D08A8
:100CE000D0074E08CF07031C942ED00A031D942E64
:100CF000D10A031D942ED20A942E4C088038D102BA
:100D00000318932E0130D2020318932ED20A4C08F6
:100D10008038D1074D08D007031C712ED10A031D5E
:100D2000712ED20A712E7A14D30B972EA22E031095
:100D3000CF0DD00DD10DD20D0310FA0DF90DF80D18
:100D4000D40D4E2E541CAA2E0310F80CF90CFA0CDC
:100D5000D40CAD2EF7030319EF2ED41BD62E03109F
:100D6000CF0DD00DD10DD20D4E08CF020318C22EDB
:100D70000130D0020318C22ED1020318C22ED202B3
:100D8000031CE52E4D08D0020318CD2E0130D102F0
:100D90000318CD2ED202031CE52E4C088038D10258
:100DA0000318D62E0130D202031CE52EFA0A031DC9
:100DB000E52EF90A031DE52EF80A031DE52EF70AB4
:100DC0000319EF2EF80CF90CFA0C4808D3004C0864
:100DD000D306D31FED2EF817F32EF813F32EF701D9
:100DE000F801F901FA0108000030F8001F08C739BE
:100DF00078049F000D30F700F70BFC2E1F151F190C
:100E0000FF2E83161E088312B1001E08B2000830A0
:100E1000F8001F08C73978049F000D30F700F70B62
:100E20000F2F1F151F19122F83161E088312B300D0
:100E30001E08B400C4013230C3003408C6003308B1
:100E4000C5001030C700F701FA01C40CC30C031C25
:100E50002F2F4508F7070318FA0A4608FA07FA0C75
:100E6000F70CF90CF80CC70B252F7908C40078088B
:100E7000C3007908C6007808C5000D2683107A08DB
:100E8000CA007908C9007808C8007708C700CE01F1
:100E9000C430CD006F30CC008D30CB00D3227A0827
:100EA000C6007908C5007808C4007708C3007A082E
:100EB000CA007908C9007808C8007708C700CE01C1
:100EC000C030CD007F30CC008830CB002A267A0895
:100ED000BC007908BB007808BA007708B900553023
:100EE0003102C3003208C4000130031C0230C402C6
:100EF0004408C6004308C5000D267A08D3007908C7
:100F0000D2007808D1007708D000D701D60106308A
:100F1000D5008430D4002F217A08C6007908C50096
:100F20007808C4007708C30083107A08CA007908DB
:100F3000C9007808C8007708C700CE01E030CD00AE
:100F40006230CC008B30CB00D3227A08C6007908FF
:100F5000C5007808C4007708C3007A08CA00790879
:100F6000C9007808C8007708C700CE01CD01043059
:100F7000CC008730CB002A267A08C0007908BF0051
:100F80007808BE007708BD000830C3000130C400F7
:100F9000FF202030D0000F210430C3000130C400F6
:100FA000FF20893084003C08C6003B08C5003A0891
:100FB000C4003908C3000130C700F3210C30C3005E
:100FC0000130C400FF20893084004008C6003F087B
:100FD000C5003E08C4003D08C3000130C700F3212E
:060FE0008A150A129D298A
:1010000083160614831206180D28AB190C28AD0B95
:101010000C28AB150230AB0610286430AD00AB11C4
:101020008A150A129F2983168614831286186C2843
:101030002B1A6B28AE0B6B282B16C601C50120306E
:10104000C4008130C3003808CA003708C900360818
:10105000C8003508C7008A1114248A1503183228DD
:10106000031D3928B801B7012030B6008130B50022
:10107000552883103808CA003708C9003608C80048
:101080003508C700CD30CE00CC30CD004C30CC0080
:101090007B30CB008A11D3228A157A08B8007908F0
:1010A000B7007808B6007708B5000D30C3000230ED
:1010B000C4008A11FF208A15893084003808C600D0
:1010C0003708C5003608C4003508C3000130C70022
:1010D0008A11F3218A156F286430AE002B128A150D
:1010E0000A12A0298316061583120619CF28AB1AF7
:1010F000CE28AF0BCE28AB163808C6003708C5007F
:101100003608C4003508C300CD30CA00CC30C90051
:101110004C30C8007B30C7008A1114248A1503188C
:101120009328031D9C28CD30B800CC30B7004C303C
:10113000B6007B30B500B82883143808CA003708D9
:10114000C9003608C8003508C700CD30CE00CC3005
:10115000CD004C30CC007B30CB008A11D3228A15D5
:101160007A08B8007908B7007808B6007708B500A3
:101170000D30C3000230C4008A11FF208A15893067
:1011800084003808C6003708C5003608C400350892
:10119000C3000130C7008A11F3218A15D2286430B8
:1011A000AF00AB128A150A12A12983168615831285
:1011B0008619E2282B1BE128B00BE1282B170430FD
:1011C000AB06E5286430B0002B138A150A12A22959
:1011D00003081F398300C201C10183161F149F1425
:1011E0001F159F1107309C0083131F109F101F15A0
:1011F0009F111F1383121F179F1783169F178312A8
:101200001F1483160108C0390338810083128B161E
:10121000C0308B04CD30B800CC30B7004C30B600B5
:101220007B30B500FA30AC006430AD00AE00AF00EA
:10123000AB112B12AB122B10AB102B118A11E02823
:101240008A150130C300C4008A11FF208A1553306B
:10125000D0008A110F218A155030D0008A110F2139
:101260008A153A30D0008A110F218A150930C3003F
:101270000130C4008A11FF208A155030D0008A1135
:101280000F218A155630D0008A110F218A153A3065
:10129000D0008A110F218A150130C3000230C4002A
:1012A0008A11FF208A155030D0008A110F218A152B
:1012B0003A30D0008A110F218A150630C30002305F
:1012C000C4008A11FF208A155230D0008A110F21E4
:1012D0008A153A30D0008A110F218A150B30C300CD
:1012E0000230C4008A11FF208A154830D0008A11CC
:1012F0000F218A153A30D0008A110F218A150D303E
:10130000C3000230C4008A11FF208A15893084008E
:101310003808C6003708C5003608C4003508C300C1
:101320000130C7008A11F3218A158A11A92C8A1568
:101330002B1C9E292B108A11F42E8A1500281328A5
:081340007228D52895296300ED
:02400E00723FFF
:00000001FF
;PIC16F877A
;CRC=55DB  CREATED="18-jan-21 10:05"
