:020000040000FA
:1000000083160510831207309F0005102010851CF1
:100010001128051D172820181D2807280510201055
:10002000072820180E2805142014A01407282018CB
:100030000E2805142014A0100728A0182028252811
:100040002E20051C2C28051007280430A3003C2076
:10005000051C2C280510072805140728FA30A200D3
:10006000FA30A10000000000000000000000A10B19
:100070003228A20B30280800FA30A200FA30A10082
:1000800000000000000000000000A10B4028A20BAF
:080090003E28A30B3C280800E8
:0400980000340034FC
:02400E00703F01
:00000001FF
