:1000000008308A0000280000FF00030E8301A100D1
:100010000A08A0008A010408A2007708A300780853
:10002000A4007908A5007A08A600831383128B1E0A
:100030001B280B192C28220884002308F700240809
:10004000F8002508F9002608FA0020088A00210E89
:100050008300FF0E7F0E09008A110A122F28010863
:10006000063ED80058088100A90B39282814FA3018
:10007000A9000B118A110A121B284C08003A031917
:100080004E28013A03195428033A03195A28013A11
:1000900003196228073A0319682870288316850116
:1000A00083124D08850070288316860183124D083F
:1000B000860070280030A7008316870183124D0840
:1000C000870070288316880183124D0888007028E5
:1000D000831609108910091183124D0889007028B0
:1000E00008001A30F700F70B732800008316091078
:1000F0008312091083160911831209110330CC00F1
:100100004208CD003D2083168910831289141A30CD
:10011000F700F70B892800008316891083128910D5
:1001200008003E308400831300080319A42802301D
:10013000F800F701F70B9A28F80B99289730F70089
:10014000F70BA028800B97280800831689108312CC
:1001500089103830C20071200F30BE00912001306C
:10016000C20071200A30BE0091200C30C200712004
:100170000A30BE0091200630C20071200A30BE0055
:1001800091208A150A1238283F0BC728CA28403008
:10019000C000CB28C00101303E02C00740088038B3
:1001A000C100C200712008001A30F700F70BD628F2
:1001B0000000831609108312091483160911831293
:1001C00009110330CC004B08CD003D208316891067
:1001D000831289141A30F700F70BEC2800008316FD
:1001E00089108312891008004B0803196429D30071
:1001F0004F0803196429D307031805297F30D30258
:10020000031C64290319642909298130D3070318C1
:1002100064295308F700F801F901FA014C08D700E6
:10022000D7174D08D6004E08D5001830D300D4019A
:10023000551C32295208FA07031C2429F90A031D08
:100240002429F80A0319D4175108F907031C2B298C
:10025000F80A0319D4175008CD00CD174D08F80738
:100260000318D417D40DF80CF90CFA0CD70CD60CD3
:10027000D50C0310D30B17290130F7070318642995
:10028000F81B4929D70DFA0DF90DF80DF7030319DD
:100290006429D71F5A29FA0A031D5A29F90A031D8E
:1002A0005A29F80A031D5A29F80CF90CFA0CF70A16
:1002B000031964294C08D4005008D406D41F6229BD
:1002C000F8176829F8136829F701F801F901FA010C
:1002D000080083186E29533084008313F701F80156
:1002E000F901FA01D301D401D501D6015208510414
:1002F00050044F040319AC292030D7000310CB0D54
:10030000CC0DCD0DCE0DD30DD40DD50DD60D52087F
:100310005602031D952951085502031D95295008C1
:100320005402031D95294F085302031CA6294F08A8
:10033000D3025008031C500FD4025108031C510F64
:10034000D5025208031C520FD6020314F70DF80D04
:10035000F90DFA0DD70B7E2953088000840A540842
:100360008000840A55088000840A5608800008002E
:100370000408C3004208C5000319D7294108CE006C
:100380004008CD003F08CC003E08CB00D201D1018F
:100390002030D0008230CF00F4207A08C1007908E4
:1003A000C0007808BF007708BE00C50BBE29410811
:1003B000CE004008CD003F08CC003E08CB004B08E3
:1003C000B63CCB00FA014C08CF00CC170310CC0C84
:1003D000CD0CCE0CFA0CF90CF80CF70CCB0BE62973
:1003E000CF1FFD29F709F809F909FA09F70A0319D6
:1003F000F80A0319F90A0319FA0A7A08C1007908F8
:10040000C0007808BF007708BE00C11F142AC303CC
:10041000C316BE09BF09C009C109BE0A0319BF0A34
:100420000319C00A0319C10A3B30CA009A30C90037
:10043000CA30C800C7010A30C50042080319C30A00
:1004400083143E30840083134108CE004008CD0061
:100450003F08CC003E08CB004A08D2004908D10032
:100460004808D0004708CF0069217808F708031D25
:100470004C2A420A450203194C2A430803194E2A02
:100480000F3945020319462A03187E2AC31B7E2A08
:10049000431B4E2A20307A2A2030C305C31E5C2A13
:1004A000C3124208031DC3037708C3002D30CB00DD
:1004B000D4204308F700C30142084502031D6A2AFD
:1004C0007708C3002E30CB00D4204308F70020303B
:1004D000C30500303030C31E7A2AC3124208031D00
:1004E000C3037708C3002D30CB00D4204308F700A6
:1004F000C3013030F7077708CB00D42083104A08B7
:10050000CE004908CD004808CC004708CB00D201F6
:10051000D101D0010A30CF0069217A08CA007908D8
:10052000C9007808C8007708C700C50B202A080052
:1005300080308318C706CC01CD014308CB004708A3
:10054000CB0642080319882BCA00F7004608031996
:10055000912BCA0203192D2B031CEB2A4708D0004C
:10056000D0174808CF004908CE00CD010310D00CA9
:10057000CF0CCE0CCD0CCA0BB52ACB1FC22A4C1403
:10058000A52B4C104A104C16453084008313BA2B0F
:100590004C12CB1BD52A4A1CE02AD00CCF0CCE0C17
:1005A000CD0CF70A0319A02BE02AD01BE32A031075
:1005B000CD0DCE0DCF0DD00DF7030319A02BD52AED
:1005C0004C174D2B4C134308CB00CB1FE92AD017F7
:1005D000992BD013992B4608CA00F7004208CA028B
:1005E0004308D000D0174408CF004508CE00CD0105
:1005F0000310D00CCF0CCE0CCD0CCA0BF72ACB1F9E
:10060000042BCC14A52BCC104A10CC1649308400F6
:100610008313BA2BCC12CB1B172B4A1C222BD00CCA
:10062000CF0CCE0CCD0CF70A0319A02B222BD01B1C
:10063000252B0310CD0DCE0DCF0DD00DF7030319D3
:10064000A02B172BCC174D2BCC134708CB00CB1F5F
:100650002B2BD017992BD013992B4708D000D017EC
:100660004808CF004908CE00CB1F3A2BD0134C15B9
:10067000A52B4C11CD014A10453084008313BA2BB1
:10068000CB1B632B4308CB004A1C4D2BD00CCF0C4B
:10069000CE0CCD0CF70A0319A02BCD1F5E2BCE0A72
:1006A000031D5E2BCF0A031D5E2BD00A031D5E2B9C
:1006B000D00CCF0CCE0CF70A0319A02B4C1BE22A4E
:1006C000CC1B242B822B8030D006D01F6B2BA52B6C
:1006D0004708CB00782B4308CB00D008031D782BAC
:1006E000CF08031D782BCE08031D782BF701992B1B
:1006F000D01B822B0310CD0DCE0DCF0DD00DF70BDF
:10070000782BA02BCB1F862BD017992BD013992B8E
:100710004608F7004708D0004808CF004908CE0037
:10072000992B4208F7004308D0004408CF00450841
:10073000CE005008F8004F08F9004E08FA00D82BF8
:10074000F701F801F901FA01D82BCD01CE09CF0943
:10075000D009CD09CD0A031DB32BCE0A031DB32B3F
:10076000CF0A0319D00A4C18C12ACC18032B4C19F4
:10077000392B682B0008CE07031CC42BCF0A031D9E
:10078000C42BD00A03194A1484030008CF07031CA2
:10079000CC2BD00A03194A1484030008801F803A26
:1007A000D00703184A144C1AC82ACC1A0A2B402B1B
:1007B00008003F08C6004308C606C61FE42B031105
:1007C0000310BF1B0314172C3F08C6004208C700C4
:1007D0003E08C7020319F22BC61F172C0308013A63
:1007E0008300172C4308C7003F08C7020319FE2BDC
:1007F000C61F172C0308013A8300172C4408C700B2
:100800004008C70203190A2CC61F172C0308013A17
:100810008300172C4508C7004108C7020319162C8E
:10082000C61F172C0308013A8300172C0310080079
:10083000A81C932C0330BE000230BF00C4204F30F0
:10084000CB00D4204E30CB00D42083143908C5000F
:100850003808C4003708C3003608C2003508C9008C
:100860003408C8003308C7003208C60098223D0883
:10087000C1003C08C0003B08BF003A08BE007A082F
:10088000C5007908C4007808C3007708C200D923DE
:10089000031C5C2C27112708831687008312071579
:1008A0000830BE000230BF00C4204F30CB00D4203F
:1008B0004E30CB00D420922C83103908C500380864
:1008C000C4003708C3003608C2003508C900340820
:1008D000C8003308C7003208C60098227A08C10051
:1008E0007908C0007808BF007708BE003D08C50041
:1008F0003C08C4003B08C3003A08C200D923031CCB
:10090000922C2711270883168700831207110830BD
:10091000BE000230BF00C4204F30CB00D420463090
:10092000CB00D420AF2C2711270883168700831211
:1009300007110330BE000230BF00C4204F30CB008F
:10094000D4204630CB00D4200830BE000230BF0097
:10095000C4204F30CB00D4204630CB00D4208A15A1
:100960000A12AF288E30F7004108F8004008F9005D
:10097000FA01F808031DC62C7908F800F9010830BF
:10098000F702F808031DC62CF701CE2C0310F81B44
:10099000CD2CF90DF80DF703C62CF813080042080A
:1009A0000319942DCE0046080319942DCE02031C82
:1009B000DE2C7F30CE070318942DE42C8130CE023C
:1009C000031C942D0319942D4E08F700F801F9012A
:1009D000FA01CD014308CC00CC174408CB004508F0
:1009E000CA001930CE004908CA020318072D013089
:1009F000CB020318072DCC020318072DCD020318D4
:100A0000072DCD0ACC0ACB0A4908CA07392D480858
:100A1000CB020318222D0130CC020318222DCD0267
:100A20000318222DCD0ACC0A4808CB074908CA076B
:100A3000031C392DCB0A031D392DCC0A031D392D7A
:100A4000CD0A392D47088038CC020318382D0130E3
:100A5000CD020318382DCD0A47088038CC07480846
:100A6000CB07031C162DCC0A031D162DCD0A162DFF
:100A70007A14CE0B3C2D472D0310CA0DCB0DCC0D97
:100A8000CD0D0310FA0DF90DF80DCF0DF32C4F1C01
:100A90004F2D0310F80CF90CFA0CCF0C522DF70364
:100AA0000319942DCF1B7B2D0310CA0DCB0DCC0D3C
:100AB000CD0D4908CA020318672D0130CB02031877
:100AC000672DCC020318672DCD02031C8A2D480820
:100AD000CB020318722D0130CC020318722DCD0207
:100AE000031C8A2D47088038CC0203187B2D013067
:100AF000CD02031C8A2DFA0A031D8A2DF90A031D53
:100B00008A2DF80A031D8A2DF70A0319942DF80C73
:100B1000F90CFA0C4308CE004708CE06CE1F922DE2
:100B2000F817982DF813982DF701F801F901FA013B
:100B30000800C6010408C5004610831B46143F0E7A
:100B4000F038C100C107E23EC200323EC4003F0897
:100B50000F39C207C207C407E93EC300C307C30772
:100B60003E0E0F39C307C407C30DC40DC409C40D1D
:100B70003E080F39C407C10D0730C0000A30C40752
:100B8000C303031CBF2DC307C203031CC32DC2072D
:100B9000C103031CC72DC107C003031CCB2D40306C
:100BA000840083130730450545138407443004024D
:100BB000031945170008F700031DE62D451BE62D18
:100BC000451AF82DC519E62D2030E92DC515451219
:100BD0003030F707BF010408BE003F10831B3F14ED
:100BE0007708CB00D4203E08840083133F18831776
:100BF000840A451FD62D08000030F8001F08C739A9
:100C000078049F000D30F700F70B042E1F151F19F5
:100C1000072E83161E088312AE001E08AF00083090
:100C2000F8001F08C73978049F000D30F700F70B54
:100C3000172E1F151F191A2E83161E088312B000B7
:100C40001E08B10055303002BE003108BF0001302F
:100C5000031C0230BF023F08C1003E08C000B2249E
:100C60007A08CE007908CD007808CC007708CB0050
:100C7000D201D1010630D0008430CF00F4207A08B0
:100C8000C1007908C0007808BF007708BE00831053
:100C90007A08C5007908C4007808C3007708C20044
:100CA000C901E030C8006230C7008B30C60098220E
:100CB0007A08C1007908C0007808BF007708BE0034
:100CC0007A08C5007908C4007808C3007708C20014
:100CD000C901C8010430C7008730C600CF247A0894
:100CE000B9007908B8007808B7007708B60031086D
:100CF000013C031C872E031D812E3008553C031C2C
:100D0000872EB901B8015C30B7008330B60055308A
:100D10002E02BE002F08BF000130031C0230BF02AC
:100D20003F08C1003E08C000B2247A08CE0079080E
:100D3000CD007808CC007708CB00D201D101063075
:100D4000D0008430CF00F4207A08C1007908C000B8
:100D50007808BF007708BE0083107A08C5007908BC
:100D6000C4007808C3007708C200C901E030C80099
:100D70006230C7008B30C60098227A08C10079081B
:100D8000C0007808BF007708BE007A08C50079085F
:100D9000C4007808C3007708C200C901C801043044
:100DA000C7008730C600CF247A08BD007908BC0090
:100DB0007808BB007708BA00281D0B2F0830BE004A
:100DC0000130BF00C4202030CB00D4200430BE004E
:100DD0000130BF00C420893084003908C1003808C0
:100DE000C0003708BF003608BE000130C200B8217D
:100DF0000C30BE000130BF00C420893084003D08A3
:100E0000C1003C08C0003B08BF003A08BE000130EA
:100E1000C200B821232F0430BE000130BF00C4201F
:100E2000093084003108BF003008BE0099250C301D
:100E3000BE000130BF00C420093084002F08BF006D
:100E40002E08BE0099258A150A12B52883160614A5
:100E500083120618332FA819322FAA0B322FA81588
:100E60000230A806362F6430AA00A8118A150A128B
:100E7000B82883168614831286188C2F281A8B2F75
:100E8000AB0B8B2F28166630C100C0001E30BF0090
:100E90008230BE003508C5003408C4003308C300E2
:100EA0003208C200D9230318572F031D5F2F663065
:100EB000B500B4001E30B3008230B200792F831029
:100EC0003508C5003408C4003308C3003208C20026
:100ED000CD30C900CC30C8004C30C7007B30C600D4
:100EE00098227A08B5007908B4007808B30077082A
:100EF000B2000D30BE000230BF00C4208930840033
:100F00003508C1003408C0003308BF003208BE00F5
:100F10000130C200B8218F2F6430AB0028128A152F
:100F20000A12BB288316061583120619E72FA81A82
:100F3000E62FAC0BE62FA8163508C1003408C00018
:100F40003308BF003208BE00CD30C500CC30C4002D
:100F50004C30C3007B30C200D9230318B12F031DCE
:100F6000BA2FCD30B500CC30B4004C30B3007B305C
:100F7000B200D42F83143508C5003408C4003308E8
:100F8000C3003208C200CD30C900CC30C8004C309C
:100F9000C7007B30C60098227A08B5007908B400F3
:100FA0007808B3007708B2000D30BE000230BF00F1
:100FB000C420893084003508C1003408C0003308DB
:100FC000BF003208BE000130C200B821EA2F6430F1
:100FD000AC00A8128A150A12BE2883168615831241
:100FE0008619FA2F281BF92FAD0BF92F281704307B
:100FF000A806FD2F6430AD0028138A150A12C128F7
:1010000003081F398300FF30A70083161F149F14A5
:101010001F159F1107309C0083131F109F101F1571
:101020009F111F1383121F179F1783169F17831279
:101030001F1483160108C0390338810083128B16F0
:10104000C0308B04CD30B500CC30B4004C30B30090
:101050007B30B200FA30A9006430AA00AB00AC00CB
:10106000A8112812A8122810A81028118A11A52842
:101070008A150130BE00BF008A11C4208A15543081
:10108000CB008A11D4208A154130CB008A11D4209C
:101090008A153A30CB008A11D4208A150930BE0057
:1010A0000130BF008A11C4208A155430CB008A1148
:1010B000D4208A154D30CB008A11D4208A153A30BD
:1010C000CB008A11D4208A150130BE000230BF0047
:1010D0008A11C4208A155030CB008A11D4208A1579
:1010E0003A30CB008A11D4208A150630BE00023077
:1010F000BF008A11C4208A155230CB008A11D42037
:101100008A153A30CB008A11D4208A150B30BE00E4
:101110000230BF008A11C4208A154830CB008A11E2
:10112000D4208A153A30CB008A11D4208A150D308C
:10113000BE000230BF008A11C4208A1589308400A5
:101140003508C1003408C0003308BF003208BE00B3
:101150000130C2008A11B8218A158A11182C8A150B
:10116000281CB62828108A11FC2D8A158A11262FD2
:101170008A158A11392F8A158A11922F8A158A1198
:08118000ED2F8A15AD28630074
:02400E00323F3F
:00000001FF
;PIC16F877A
;CRC=3E6D  CREATED="11-jan-21 11:02"
