:1000000002308A008B2A0000FF00030E8301A1004A
:100010000A08A0008A010408A2007708A300780853
:10002000A4007908A5007A08A600831383128C30F7
:100030008400801E1D288C1A32288B1E21280B1943
:100040003528220884002308F7002408F800250832
:10005000F9002608FA0020088A00210E8300FF0E0E
:100060007F0E09008A110A1238288A110A124D28B7
:100070008C1E38281A08AB002C30500784008313DC
:100080002B088000D00A2B08403C031D49282A1465
:10009000D0018C128A110A1221280B118A110A121E
:1000A00021287408003A03196228013A03196828C4
:1000B000033A03196E28013A03197628073A0319FF
:1000C0007C2884288316850175088312850084287E
:1000D0008316860175088312860084280030A700E5
:1000E0008316870175088312870084288316880188
:1000F0007508831288008428831609108910091155
:10010000750883128900842808001A30F700F70B5D
:10011000872800008316091083120910831609111D
:10012000831209110330F4007308F500512083167F
:100130008910831289141A30F700F70B9D280000EC
:10014000831689108312891008006A308400831393
:1001500000080319B8280230F800F701F70BAE28A1
:10016000F80BAD289730F700F70BB428800BAB28BD
:10017000080083168910831289103830F300852017
:100180000F30EA00A5200130F30085200A30EA0094
:10019000A5200C30F30085200A30EA00A5200630A7
:1001A000F30085200A30EA00A5208A110A12B72A36
:1001B0000130EA00EB016B08033C031CF5285130C9
:1001C0006B07F800FA010318FA0A2C306A0784005A
:1001D00083130008F4007808840083137A188317C7
:1001E00074088000EA0AEB0ADB28EA0AEC016C08D2
:1001F000033C031C112955306C07F800FA01031861
:10020000FA0A2C306A07840083130008F400780887
:10021000840083137A18831774088000EA0AEC0AB2
:10022000F728EA0AED01ED08031D1F292C306A07A3
:10023000840083130008D900EA0AED0A1329EA0AA8
:10024000EE01EE08031D2D292C306A07840083136C
:100250000008DA00EA0AEE0A2129EA0AEF016F082B
:10026000043C031C49295B306F07F800FA010318AE
:10027000FA0A2C306A07840083130008F400780817
:10028000840083137A18831774088000EA0AEF0A3F
:100290002F29EA0AF0017008043C031C652960302C
:1002A0007007F800FA010318FA0A2C306A07840074
:1002B00083130008F4007808840083137A188317E6
:1002C00074088000EA0AF00A4B29EA0AF101710871
:1002D000043C031C812965307107F800FA010318FA
:1002E000FA0A2C306A07840083130008F4007808A7
:1002F000840083137A18831774088000EA0AF10ACD
:1003000067290800700B852988294030F100892968
:10031000F10101306F02F10771088038F200F3003B
:10032000852008001A30F700F70B94290000831687
:10033000091083120914831609118312091103305D
:10034000F4007008F5005120831689108312891477
:100350001A30F700F70BAA290000831689108312C0
:10036000891008000130EF00F00082215330F000C6
:1003700092215030F00092213A30F0009221043066
:10038000EF000130F0008221EA016A08033C031CFF
:10039000D32951306A07840083130008EF00F0006E
:1003A0009221EA0AC5290930EF000130F0008221CC
:1003B0005030F00092215630F00092213A30F00097
:1003C00092210C30EF000130F0008221EB016B082C
:1003D000033C031CF52955306B0784008313000888
:1003E000EF00F0009221EB0AE7290130EF00023024
:1003F000F00082215030F00092213A30F00092213A
:100400000330EF000230F00082215908313C031D17
:10041000102A4F30F00092214E30F0009221162A1F
:100420004F30F00092214630F00092215A08303CC3
:10043000031D3D2A0830EF000230F00082214B30CE
:10044000F00092217030F00092213A30F0009221B9
:100450000B30EF000230F0008221EC016C08043C0C
:10046000031C3C2A5B306C07840083130008EF00F8
:10047000F0009221EC0A2E2A8A2A5A08313C031DE8
:10048000642A0830EF000230F00082214B30F00087
:1004900092216930F00092213A30F00092210B3025
:1004A000EF000230F0008221ED016D08043C031CD6
:1004B000632A60306D07840083130008EF00F000AA
:1004C0009221ED0A552A8A2A5A08323C031D8A2AAB
:1004D0000830EF000230F00082215430F000922109
:1004E0006430F00092213A30F00092210B30EF009E
:1004F0000230F0008221EE016E08043C031C8A2ABF
:1005000065306E07840083130008EF00F00092212D
:10051000EE0A7C2A080003081F3983000C3083167A
:100520009900A2309800903083129800FF30A70005
:1005300083161F149F141F159F1107309C008313EF
:100540008312A801A90183161F109F101F159F1168
:100550001F1383121F179F1783169F1783121F14D1
:1005600083160108C039023881008312B928831626
:100570008C1683128B12C0308B04D820B2212A1C17
:0C058000C42AD820B2212A10BF2A630030
:02400E00723FFF
:00000001FF
;PIC16F877A
;CRC=617A  CREATED="03-mar-21 12:57"
