:100000000A308A004C2A0000FF00030E8301A10081
:100010000A08A0008A010408A2007708A300780853
:10002000A4007908A5007A08A600831383128B1E0A
:100030001B280B192C28220884002308F700240809
:10004000F8002508F9002608FA0020088A00210E89
:100050008300FF0E7F0E09008A110A122F28010863
:10006000063E8316A9002908831281002D08031972
:10007000AE03AD0B4328AE08031D43280130AE008C
:10008000F430AD00A7140B118A110A121B286F0857
:10009000003A03195828013A03195E28033A031954
:1000A0006428013A03196B28073A03197128792843
:1000B00083168501700883128500792883168601CE
:1000C0007008831286007928FB3083168700700839
:1000D00083128700792883168801700883128800AC
:1000E0007928831609108910091170088312890074
:1000F000792808001A30F700F70B7C2800008316D7
:100100000910831209108316091183120911033093
:10011000EF006508F00047208316891083128914C8
:100120001A30F700F70B922800008316891083120B
:100130008910080061308400831300080319AD287A
:100140000230F800F701F70BA328F80BA22897302C
:10015000F700F70BA928800BA02808008316891048
:10016000831289103830E5007A200F30E1009A20A0
:100170000130E5007A200A30E1009A200C30E500D9
:100180007A200A30E1009A200630E5007A200A3011
:10019000E1009A208A150A129B2A8E30F700620825
:1001A000F8006108F900FA01F808031DE128790850
:1001B000F800F9010830F702F808031DE128F701FB
:1001C000E9280310F81BE828F90DF80DF703E128DA
:1001D000F81308006F08031969298316A000730833
:1001E000031DF42883126929A007031802297F3010
:1001F000A0020318FD2883126929031D0129831217
:10020000692908298130A007031C0829831269295C
:100210002008F700F801F901FA017008A400A417FA
:100220007108A3007208A2001830A000A101221CCE
:1002300031297608FA07031C2329F90A031D23290B
:10024000F80A0319A1177508F907031C2A29F80AE7
:100250000319A1177408F100F1177108F8070318C2
:10026000A117A10DF80CF90CFA0CA40CA30CA20C0C
:100270000310A00B16290130F707031C4129831234
:100280006929F81B4B29A40DFA0DF90DF80DF70B90
:100290004B2983126929A41F5E29FA0A031D5E29CE
:1002A000F90A031D5E29F80A031D5E29F80CF90CF2
:1002B000FA0CF70A031D5E29831269297008A10050
:1002C0007408A106A11F6629F8176E29F8136E2974
:1002D0008312F701F801F901FA018316831208006D
:1002E00080308318EA06EF01F0016608EE006A0824
:1002F000EE0665080319602AED00F7006908031986
:10030000692AED020319052A031CC3296A08F300B0
:10031000F3176B08F2006C08F100F0010310F30C06
:10032000F20CF10CF00CED0B8D29EE1F9A296F14D5
:100330007D2A6F106D106F16683084008313922A27
:100340006F12EE1BAD296D1CB829F30CF20CF10CE9
:10035000F00CF70A0319782AB829F31BBB290310FC
:10036000F00DF10DF20DF30DF7030319782AAD2905
:100370006F17252A6F136608EE00EE1FC129F317C9
:10038000712AF313712A6908ED00F7006508ED0280
:100390006608F300F3176708F2006808F100F0013F
:1003A0000310F30CF20CF10CF00CED0BCF29EE1F47
:1003B000DC29EF147D2AEF106D10EF166C308400ED
:1003C0008313922AEF12EE1BEF296D1CFA29F30C0E
:1003D000F20CF10CF00CF70A0319782AFA29F31B36
:1003E000FD290310F00DF10DF20DF30DF7030319C4
:1003F000782AEF29EF17252AEF136A08EE00EE1F7F
:10040000032AF317712AF313712A6A08F300F3170A
:100410006B08F2006C08F100EE1F122AF3136F153F
:100420007D2A6F11F0016D10683084008313922AC9
:10043000EE1B3B2A6608EE006D1C252AF30CF20C1D
:10044000F10CF00CF70A0319782AF01F362AF10A8A
:10045000031D362AF20A031D362AF30A031D362A23
:10046000F30CF20CF10CF70A0319782A6F1BBA2966
:10047000EF1BFC295A2A8030F306F31F432A7D2AFA
:100480006A08EE00502A6608EE00F308031D502AA1
:10049000F208031D502AF108031D502AF701712AA2
:1004A000F31B5A2A0310F00DF10DF20DF30DF70BAB
:1004B000502A782AEE1F5E2AF317712AF313712A45
:1004C0006908F7006A08F3006B08F2006C08F10095
:1004D000712A6508F7006608F3006708F2006808EB
:1004E000F1007308F8007208F9007108FA00B02AE8
:1004F000F701F801F901FA01B02AF001F109F20956
:10050000F309F009F00A031D8B2AF10A031D8B2A57
:10051000F20A0319F30A6F189929EF18DB296F19EA
:10052000112A402A0008F107031C9C2AF20A031D25
:100530009C2AF30A03196D1484030008F207031CB4
:10054000A42AF30A03196D1484030008801F803A5B
:10055000F30703186D146F1AA029EF1AE229182A5D
:1005600008006208E9006608E906E91FBC2A0311D1
:100570000310E21B0314EF2A6208E9006508EA0091
:100580006108EA020319CA2AE91FEF2A0308013A9F
:100590008300EF2A6608EA006208EA020319D62AF5
:1005A000E91FEF2A0308013A8300EF2A6708EA00EF
:1005B0006308EA020319E22AE91FEF2A0308013A55
:1005C0008300EF2A6808EA006408EA020319EE2AA9
:1005D000E91FEF2A0308013A8300EF2A03100800FD
:1005E0000830F8001F08C73978049F000630F7006C
:1005F000F70BF82A00001F151F19FC2A83161E0886
:100600008312AF001E08B0000030F8001F08C73981
:1006100078049F000630F700F70B0C2B00001F1525
:100620001F19102B83161E088312B1001E08B2007A
:100630003008E2002F08E100CD207A08F2007908A6
:10064000F1007808F0007708EF00DB30F6008A3020
:10065000F5007D30F4007B30F300EA207A08E400F6
:100660007908E3007808E2007708E10083147A084B
:10067000E8007908E7007808E6007708E5008530AB
:10068000EC00EB30EB006930EA008230E9007021C9
:100690007A08CC007908CB007808CA007708C9002E
:1006A0004C08E4004B08E3004A08E2004908E10076
:1006B000E801E7017030E6008330E500B122031C59
:1006C000672BCC01CB017030CA008330C900E40134
:1006D000E3012030E2008530E1004C08E8004B08DF
:1006E000E7004A08E6004908E500B122031C7E2B1A
:1006F000CC01CB012030CA008530C9003208E200AD
:100700003108E100CD207A08F2007908F10078087C
:10071000F0007708EF00DB30F6008A30F5007D301E
:10072000F4007B30F300EA207A08E4007908E30063
:100730007808E2007708E10083147A08E800790875
:10074000E7007808E6007708E5008530EC00EB303C
:10075000EB006930EA008230E90070217A08D000AD
:100760007908CF007808CE007708CD008A150A12E4
:10077000A42A620BBC2BBF2B4030E300C02BE3014B
:1007800001306102E30763088038E400E5007A2065
:1007900008001A30F700F70BCB2B00008316091066
:1007A0008312091483160911831209110330EF0013
:1007B0006E08F000472083168910831289141A30BE
:1007C000F700F70BE12B00008316891083128910C4
:1007D00008006F08B63CEF00FA017008F300F0174C
:1007E0000310F00CF10CF20CFA0CF90CF80CF70CED
:1007F000EF0BF02BF31F072CF709F809F909FA0999
:10080000F70A0319F80A0319F90A0319FA0A080082
:1008100083180D2CA03084008313F701F801F9012F
:10082000FA018316A001A101A201A30176087504B3
:100830007404730403194E2C2030A4000310831297
:10084000EF0DF00DF10DF20D8316A00DA10DA20D0F
:10085000A30D76082302031D372C75082202031D01
:10086000372C74082102031D372C73082002031C47
:10087000482C7308A0027408031C740FA1027508A9
:10088000031C750FA2027608031C760FA302031443
:10089000F70DF80DF90DFA0DA40B1E2C20088000A1
:1008A000840A21088000840A22088000840A230820
:1008B0008000831208000408E6006508E8000319B8
:1008C0007A2C6408F2006308F1006208F000610805
:1008D000EF00F601F5012030F4008230F300EA2049
:1008E0007A08E4007908E3007808E2007708E1007C
:1008F000E80B612C6408F2006308F1006208F00064
:100900006108EF00E9237A08E4007908E300780839
:10091000E2007708E100E41F9A2CE603E616E109FD
:10092000E209E309E409E10A0319E20A0319E30A07
:100930000319E40A3B30ED009A30EC00CA30EB00BA
:10094000EA010A30E80065080319E60A83146130F9
:10095000840083136408F2006308F1006208F00069
:100960006108EF006D08F6006C08F5006B08F400F4
:100970006A08F30008247808F708031DD22C650ADA
:1009800068020319D22C66080319D42C0F396802A7
:100990000319CC2C0318042DE61B042D661BD42C44
:1009A0002030002D2030E605E61EE22CE612650818
:1009B000031DE6037708E6002D30EE00C923660824
:1009C000F700E60165086802031DF02C7708E600D1
:1009D0002E30EE00C9236608F7002030E60500300F
:1009E0003030E61E002DE6126508031DE603770889
:1009F000E6002D30EE00C9236608F700E60130302E
:100A0000F7077708EE00C92383106D08F2006C0821
:100A1000F1006B08F0006A08EF00F601F501F4013F
:100A20000A30F30008247A08ED007908EC00780811
:100A3000EB007708EA00E80BA62C08000130E10083
:100A4000E200B9235330EE00C9235030EE00C92331
:100A50003A30EE00C9230430E1000130E200B9234E
:100A6000023084004C08E4004B08E3004A08E2002E
:100A70004908E1000130E5005B240930E100013064
:100A8000E200B9235030EE00C9235630EE00C923EE
:100A90003A30EE00C9230C30E1000130E200B92306
:100AA000023084005008E4004F08E3004E08E200E2
:100AB0004D08E1000130E5005B240130E100023027
:100AC000E200B9235030EE00C9233A30EE00C923CA
:100AD0000330E1000230E200B923271C762D4F30AD
:100AE000EE00C9234E30EE00C9237C2D4F30EE00BE
:100AF000C9234630EE00C923A808031DA02D0830E5
:100B0000E1000230E200B9234B30EE00C92370301F
:100B1000EE00C9233A30EE00C9230B30E100023069
:100B2000E200B923893084005808E4005708E30044
:100B30005608E2005508E1000330E5005B24E72D8C
:100B4000280BC32D0830E1000230E200B9234B30FE
:100B5000EE00C9236930EE00C9233A30EE00C92304
:100B60000B30E1000230E200B923893084005C08D8
:100B7000E4005B08E3005A08E2005908E100033092
:100B8000E5005B24E72D2808023C031DE72D083013
:100B9000E1000230E200B9235430EE00C923643092
:100BA000EE00C9233A30EE00C9230B30E1000230D9
:100BB000E200B923893084006008E4005F08E300A4
:100BC0005E08E2005D08E1000330E5005B240800F8
:100BD0000408E7006608E9000319072E6508F2001B
:100BE0006408F1006308F0006208EF00F601F50107
:100BF0002030F4008230F300EA207A08E50079081A
:100C0000E4007808E3007708E200E90BEE2D6508C0
:100C1000F2006408F1006308F0006208EF00E923C5
:100C20007A08E5007908E4007808E3007708E20034
:100C3000E51F272EE703E716E209E309E409E509C2
:100C4000E20A0319E30A0319E40A0319E50A3B302F
:100C5000EE009A30ED00CA30EC00EB010A30E900FA
:100C600066080319E70A8314623084008313650859
:100C7000F2006408F1006308F0006208EF006E08FB
:100C8000F6006D08F5006C08F4006B08F30008240A
:100C90007808F708031D5F2E660A690203195F2EA4
:100CA00067080319612E0F3969020319592E0318B9
:100CB000952EE71B952E671B612E2030902E20303D
:100CC000E705E71E702EE7126608031DE7037708A5
:100CD000E7002D300C1E6A2E99006708F700E70127
:100CE00066086902031D7F2E7708E7002E300C1E70
:100CF000772E99006708F7002030E7050030303084
:100D0000E71E902EE7126608031DE7037708E70049
:100D10002D300C1E892E99006708F700E70130304E
:100D2000F70777080C1E922E990083106E08F200C8
:100D30006D08F1006C08F0006B08EF00F601F5019A
:100D4000F4010A30F30008247A08EE007908ED0077
:100D50007808EC007708EB00E90B332E08006908EF
:100D6000F80168020318B72E6808F700C32EF701D0
:100D70000830EA00E80DF70D690877020318F7005C
:100D8000F80DEA0BBA2E08002030631E3030E40064
:100D90006208F700E21FD42EF709F70A7708E2008D
:100DA0002D30E400E31763146208E8006430E900C2
:100DB000AF267708E20030307807E5006208E800E7
:100DC0000A30E900AF2630307707E7003030780787
:100DD000E6006408F700303065020319F32EE314CF
:100DE000E31B6315072F6408E5002030E400303072
:100DF00066020319FF2E6314E31BE314072F031D80
:100E00006314031D072F6508E6002030E500631911
:100E10000E2FE318122F6318162F1A2F64080C1EBA
:100E20000F2F990065080C1E132F990066080C1EE1
:100E3000172F990067080C1E1B2F9900080000301F
:100E400027180130E10024300C1E242F990089302E
:100E500084004C08E5004B08E4004A08E300490818
:100E6000E2000130E600E8252C300C1E352F9900F9
:100E7000893084005008E5004F08E4004E08E30084
:100E80004D08E2000130E600E8252C300C1E462F0C
:100E900099006108E2001830E300C4262C300C1ED3
:100EA0004F2F99002808E2001830E300C4262C30A8
:100EB0000C1E582F9900893084005808E500570807
:100EC000E4005608E3005508E2000330E600E82598
:100ED0002C300C1E692F9900893084005C08E500D5
:100EE0005B08E4005A08E3005908E2000330E6001A
:100EF000E8252C300C1E7A2F990089308400600878
:100F0000E5005F08E4005E08E3005D08E2000330EE
:100F1000E600E82540300C1E8B2F990008008E302B
:100F2000F7006108F7026208F9006308F800F91792
:100F3000F7080319A62F0310F908031DA22FF808BC
:100F40000319A62FF90CF80CF70B9B2FE21FAD2FFE
:100F5000F809F909F80A0319F90A8A150A12B82AD0
:100F60002808023C031DB62FA801B72FA80A28089D
:080F7000F8008A150A12032C97
:1010000069080319C628F5006D080319C628F502FA
:1010100003180B2810287F30F5070318C628162858
:101020008130F502031CC6280319C6287508F7008D
:10103000F801F901FA01F4016A08F300F3176B08EB
:10104000F2006C08F1001930F5007008F102031885
:1010500039280130F20203183928F302031839281D
:10106000F40203183928F40AF30AF20A7008F107A7
:101070006B286F08F202031854280130F30203189A
:101080005428F40203185428F40AF30A6F08F207EC
:101090007008F107031C6B28F20A031D6B28F30A82
:1010A000031D6B28F40A6B286E088038F3020318BE
:1010B0006A280130F40203186A28F40A6E0880389E
:1010C000F3076F08F207031C4828F30A031D48289A
:1010D000F40A48287A14F50B6E2879280310F10DCC
:1010E000F20DF30DF40D0310FA0DF90DF80DF60DD8
:1010F0002528761C81280310F80CF90CFA0CF60C44
:101100008428F7030319C628F61BAD280310F10D38
:10111000F20DF30DF40D7008F10203189928013057
:10112000F20203189928F30203189928F402031C09
:10113000BC286F08F2020318A4280130F302031838
:10114000A428F402031CBC286E088038F30203189C
:10115000AD280130F402031CBC28FA0A031DBC2888
:10116000F90A031DBC28F80A031DBC28F70A031955
:10117000C628F80CF90CFA0C6A08F5006E08F5069A
:10118000F51FC428F817CA28F813CA28F701F80170
:10119000F901FA01080083144C08E8004B08E70045
:1011A0004A08E6004908E5005008EC004F08EB004B
:1011B0004E08EA004D08E9008A1170218A157A0864
:1011C000B8007908B7007808B6007708B500580865
:1011D000F2005708F1005608F0005508EF003808F3
:1011E000F6003708F5003608F4003508F3008A11D8
:1011F000EA208A157A08C0007908BF007808BE0086
:101200007708BD00F201F101F0017E30EF003C08EB
:10121000F6003B08F5003A08F4003908F3008A119B
:10122000EA208A157A08E4007908E3007808E200E9
:101230007708E10083143808E8003708E70036082B
:10124000E6003508E5003C08EC003B08EB003A08F6
:10125000EA003908E9008A1170218A157A08E80045
:101260007908E7007808E6007708E5007A08F200D8
:101270007908F1007808F0007708EF00F601F50131
:10128000F4017E30F3008A11EA208A157A08E8001A
:101290007908E7007808E6007708E5007A08EC00AE
:1012A0007908EB007808EA007708E900F001EF011F
:1012B000EE018030ED00002083106408E800630830
:1012C000E7006208E6006108E5007A08EC007908AA
:1012D000EB007808EA007708E9008A1170218A1586
:1012E0007A08E4007908E3007808E2007708E10072
:1012F0007A08F2007908F1007808F0007708EF002A
:101300005C08F6005B08F5005A08F4005908F30081
:101310008A11EA208A1583104408E8004308E70090
:101320004208E6004108E5007A08EC007908EB0085
:101330007808EA007708E9008A1170218A157A088E
:10134000C4007908C3007808C2007708C10083147C
:101350003808E8003708E7003608E6003508E500F9
:101360003C08EC003B08EB003A08EA003908E900C9
:101370008A1170218A157A08E4007908E300780858
:10138000E2007708E1007A08EC007908EB007808C1
:10139000EA007708E900F001EF01EE017E30ED0090
:1013A00000207A08E4007908E3007808E200770872
:1013B000E1007A08F2007908F1007808F000770877
:1013C000EF006008F6005F08F5005E08F4005D08B5
:1013D000F3008A11EA208A157A08C8007908C70044
:1013E0007808C6007708C50083104008E8003F0869
:1013F000E7003E08E6003D08E5004408EC0043082D
:10140000EB004208EA004108E9008A1170218A15C0
:101410007A08E4007908E3007808E2007708E10040
:1014200083107A08E8007908E7007808E600770872
:10143000E5004808EC004708EB004608EA004508CC
:10144000E9008A1170218A157A08D4007908D3003E
:101450007808D2007708D1003808BC003708BB00F4
:101460003608BA003508B9005408E4005308E30010
:101470005208E2005108E100E801E701E601E50158
:101480008A11B1228A15031C492AD401D301D20141
:10149000D1018A150A12AE2A03081F3983000C30C5
:1014A00083169900A2309800903083129800A8010A
:1014B0006430A900AA00AB00AC000130AE00F430EB
:1014C000AD00D801D701D6017F30D500DC01DB01AA
:1014D000DA01D900E001DF01DE01DD0083161F140F
:1014E0009F141F159F1107309C0083131F109F101E
:1014F0001F159F111F1383121F179F1783169F1706
:1015000083121F1483160108C0390238810000308D
:10151000F800053883129200633083169200FB3086
:101520008700831207110C30970095011708CF39F7
:1015300097008A11AE288A158B16C0308B04A71C21
:10154000DF2AA7108A11F02A8A158A111E258A150A
:101550008A111F278A15271CDF2ACB285408E4008C
:101560005308E3005208E2005108E1008A118F2F6E
:101570008A157908B4007808B3003408023C0318CF
:10158000CC2AFF3A031DC82A33081F3C0318CC2A73
:101590000330B4001F30B3003408F9003308F800FA
:1015A000F90CF80CF90CF80CF90C78089500F90C0A
:1015B000790C3039F7001708CF39770497002718CE
:1015C000F72B8316061483120618F82A2719F72A10
:1015D000A90BF72A271527140130AE00F430AD000F
:1015E000A7108A111E258A158A111F278A15FB2A22
:1015F0006430A90027118316061583120619752B6E
:10160000271A742BAB0B742B2716280B292B83104E
:101610005C08E8005B08E7005A08E6005908E500A6
:101620006F30EC001230EB000330EA007530E90057
:101630008A1170218A157A08DC007908DB007808A5
:10164000DA007708D9008A111E258A158A111F270A
:101650008A152808023C031D4F2B83106008E80000
:101660005F08E7005E08E6005D08E5006F30EC000B
:101670001230EB000330EA007530E9008A11702166
:101680008A157A08E0007908DF007808DE0077081C
:10169000DD008A111E258A158A111F278A15A808C0
:1016A000031D742B83105808E8005708E7005608FC
:1016B000E6005508E5006F30EC001230EB00033017
:1016C000EA007530E9008A1170218A157A08D8007D
:1016D0007908D7007808D6007708D5008A111E252A
:1016E0008A158A111F278A15782B6430AB002712C0
:1016F0008316861583128619F42BA71AF32BAC0BCD
:10170000F32BA716280BA72B83145C08E8005B08B3
:10171000E7005A08E6005908E5006F30EC00123087
:10172000EB000330EA007530E9008A1170218A1558
:101730007A08DC007908DB007808DA007708D9003D
:101740008A111E258A158A111F278A15F32B28084E
:10175000023C031DCE2B83146008E8005F08E700FD
:101760005E08E6005D08E5006F30EC001230EB002B
:101770000330EA007530E9008A1170218A157A0871
:10178000E0007908DF007808DE007708DD008A11C4
:101790001E258A158A111F278A15F32BA808031DF9
:1017A000F32B83145808E8005708E7005608E600B2
:1017B0005508E5006F30EC001230EB000330EA0012
:1017C0007530E9008A1170218A157A08D8007908E5
:1017D000D7007808D6007708D5008A111E258A150B
:1017E0008A111F278A15F72B6430AC00A7128316C5
:1017F0008614831286180B2CA7190A2CAA0B0A2C04
:10180000A7158A11B02F8A158A111E258A158A11EB
:101810001F278A150E2C6430AA00A711271C282C1C
:101820008316061483120618282C27109501170812
:10183000CF399700D401D301D201D101C401C30132
:10184000C201C1018A111E258A158A111F278A1516
:041850009F2A630068
:02400E00723FFF
:00000001FF
;PIC16F877A
;CRC=8C5E  CREATED="03-mar-21 16:36"
