:1000000001308A0030290000FF00030E8301A100A7
:100010000A08A0008A010408A2007708A300780853
:10002000A4007908A5007A08A600831383128B1E0A
:100030001B280B192C28220884002308F700240809
:10004000F8002508F9002608FA0020088A00210E89
:100050008300FF0E7F0E09008A110A122F28B50BAC
:1000600037283C176430B500B60B3728BC17370863
:10007000043C0319B701B708031D53288316061261
:1000800083120612831686138312861727303407CD
:10009000840083130008BE008316880183123E0883
:1000A0008800B70A9828370B6A28831686138312AC
:1000B000861383160613831206172730330784002E
:1000C00083130008BE008316880183123E0888004F
:1000D000B70A98283708023C031D842883160613A4
:1000E0008312061383168612831286162730320770
:1000F0008400831380300007BE00831688018312BA
:100100003E088800B70A9828831686128312861242
:1001100083160612831206162730310784008313D4
:100120000008BE008316880183123E088800B70AC3
:100130000B118A110A121B28831606148312061843
:10014000AC283C1AAB28B80BAB283C163C18AA28A4
:100150003C14AB283C10AF283C126430B8008A1124
:100160000A1297298316861483128618CA28BC1887
:10017000C928B90BC9283C18C928B101B201B3017B
:10018000B4013C10BC16DF30831685008312851243
:10019000BC14CD28BC106430B9008A110A12982909
:1001A0008316061583120619FA283C19F928BA0B8A
:1001B000F9283C18F928BC123108093C031DF7281E
:1001C000B1013208093C031DF528B2013308093C8E
:1001D000031DF328B3013408093C031DF128B401C1
:1001E000F228B40AF428B30AF628B20AF828B10AA9
:1001F0003C15FD283C116430BA008A110A12992975
:1002000083168615831286192A29BC192929BB0B46
:1002100029293C182929BC12B108031D27290930B6
:10022000B100B208031D25290930B200B308031D2F
:1002300023290930B300B408031D21290930B40073
:100240002229B4032429B3032629B2032829B103A0
:10025000BC152D29BC116430BB008A110A129A29E1
:1002600003081F3983006430B50083161F149F14E0
:100270001F159F1107309C0083133F308312A70086
:100280000630A8005B30A9004F30AA006630AB00F2
:100290006D30AC007D30AD000730AE007F30AF0078
:1002A0006F30B00083160108C03901388100831215
:1002B0008B168B16C0308B04B1013C10BC16B701F5
:1002C000B5013C1F8E293C133C1C8E29B108031D2F
:1002D0008D290930B100B208031D8B290930B20005
:1002E000B308031D89290930B300B408031D872909
:1002F000B101B201B301BC1A8629DF308316850033
:10030000831285163230B6003C10BC168829B4031F
:100310008A29B3038C29B2038E29B103BC1F962905
:10032000DF308316850083128512BC139C28B22807
:08033000D028002961296300B7
:02400E00313F40
:00000001FF
;PIC16F877A
;CRC=C04C  CREATED="14-dez-20 13:30"
