:020000040000FA
:020000003228A4
:040002000034003492
:08000800A5000308A6000B1D72
:100010002E280B1106308107AA0B1128A014C83016
:10002000AA00061E192806122208DB208800861660
:100030002E28861E212886122308DB20880006171A
:100040002E28061F292806132408DB20880086177F
:100050002E2886132108DB20880006162608830038
:1000600025080900831688010612861206138613D6
:10007000871007115130810044309F003F309200BB
:10008000831204309200C1309F0095010F30970019
:100090009B010F309D0088010612861206138613FD
:1000A000A101A201A301A401A010C830AA00201040
:1000B000201107118710063081008B168B17061C44
:1000C0002011861C2015061DA015861DD720A01CFA
:1000D0005F28A010C7309F051330AE00AE0B6E280E
:1000E0001F151F1971281E08A800AD009F15133099
:1000F000AE00AE0B79281F151F197C281E08A90019
:10010000A01DBB282908AC002808AC0203189228BF
:1001100095010310A808AD002908AD020318A7280F
:100120009B01BB282908AB00AB0DAB0DAB0DAB0D94
:100130003030AB05CF3097052B0897042908AB006A
:100140000310AB0C0310AB0C2B0895008928290871
:10015000AB00AB0DAB0DAB0DAB0D3030AB05CF3005
:100160009D052B089D042908AB000310AB0C031060
:10017000AB0C2B089B002019C0282908A700C22817
:100180002808A700A101A201A301A401643027024D
:10019000031CCD28A700A30AC6280A302702031C87
:1001A000D428A700A20ACD282708A1005F28A01103
:1001B00095019B01080082073F3406345B344F34BD
:0E01C00066346D347D3407347F346F34003480
:02400E00713F00
:00000001FF
